{
  "_format": "hh-sol-artifact-1",
  "contractName": "MyEpicGame",
  "sourceName": "contracts/MyEpicGame.sol",
  "abi": [
    {
      "inputs": [
        {
          "internalType": "string[]",
          "name": "characterNames",
          "type": "string[]"
        },
        {
          "internalType": "string[]",
          "name": "characterImageURIs",
          "type": "string[]"
        },
        {
          "internalType": "uint256[]",
          "name": "characterHp",
          "type": "uint256[]"
        },
        {
          "internalType": "uint256[]",
          "name": "characterAttackDmg",
          "type": "uint256[]"
        },
        {
          "internalType": "string",
          "name": "bossName",
          "type": "string"
        },
        {
          "internalType": "string",
          "name": "bossImageURI",
          "type": "string"
        },
        {
          "internalType": "uint256",
          "name": "bossHp",
          "type": "uint256"
        },
        {
          "internalType": "uint256",
          "name": "bossAttackDamage",
          "type": "uint256"
        }
      ],
      "stateMutability": "nonpayable",
      "type": "constructor"
    },
    {
      "anonymous": false,
      "inputs": [
        {
          "indexed": true,
          "internalType": "address",
          "name": "owner",
          "type": "address"
        },
        {
          "indexed": true,
          "internalType": "address",
          "name": "approved",
          "type": "address"
        },
        {
          "indexed": true,
          "internalType": "uint256",
          "name": "tokenId",
          "type": "uint256"
        }
      ],
      "name": "Approval",
      "type": "event"
    },
    {
      "anonymous": false,
      "inputs": [
        {
          "indexed": true,
          "internalType": "address",
          "name": "owner",
          "type": "address"
        },
        {
          "indexed": true,
          "internalType": "address",
          "name": "operator",
          "type": "address"
        },
        {
          "indexed": false,
          "internalType": "bool",
          "name": "approved",
          "type": "bool"
        }
      ],
      "name": "ApprovalForAll",
      "type": "event"
    },
    {
      "anonymous": false,
      "inputs": [
        {
          "indexed": false,
          "internalType": "uint256",
          "name": "newBossHp",
          "type": "uint256"
        },
        {
          "indexed": false,
          "internalType": "uint256",
          "name": "newPlayerHp",
          "type": "uint256"
        }
      ],
      "name": "AttackOrRecoverComplete",
      "type": "event"
    },
    {
      "anonymous": false,
      "inputs": [
        {
          "indexed": false,
          "internalType": "address",
          "name": "sender",
          "type": "address"
        },
        {
          "indexed": false,
          "internalType": "uint256",
          "name": "tokenId",
          "type": "uint256"
        },
        {
          "indexed": false,
          "internalType": "uint256",
          "name": "characterIndex",
          "type": "uint256"
        }
      ],
      "name": "CharacterNFTMinted",
      "type": "event"
    },
    {
      "anonymous": false,
      "inputs": [
        {
          "indexed": true,
          "internalType": "address",
          "name": "from",
          "type": "address"
        },
        {
          "indexed": true,
          "internalType": "address",
          "name": "to",
          "type": "address"
        },
        {
          "indexed": true,
          "internalType": "uint256",
          "name": "tokenId",
          "type": "uint256"
        }
      ],
      "name": "Transfer",
      "type": "event"
    },
    {
      "inputs": [
        {
          "internalType": "address",
          "name": "to",
          "type": "address"
        },
        {
          "internalType": "uint256",
          "name": "tokenId",
          "type": "uint256"
        }
      ],
      "name": "approve",
      "outputs": [],
      "stateMutability": "nonpayable",
      "type": "function"
    },
    {
      "inputs": [],
      "name": "attackBoss",
      "outputs": [],
      "stateMutability": "nonpayable",
      "type": "function"
    },
    {
      "inputs": [
        {
          "internalType": "address",
          "name": "owner",
          "type": "address"
        }
      ],
      "name": "balanceOf",
      "outputs": [
        {
          "internalType": "uint256",
          "name": "",
          "type": "uint256"
        }
      ],
      "stateMutability": "view",
      "type": "function"
    },
    {
      "inputs": [],
      "name": "bigBoss",
      "outputs": [
        {
          "internalType": "string",
          "name": "name",
          "type": "string"
        },
        {
          "internalType": "string",
          "name": "imageURI",
          "type": "string"
        },
        {
          "internalType": "uint256",
          "name": "hp",
          "type": "uint256"
        },
        {
          "internalType": "uint256",
          "name": "maxHp",
          "type": "uint256"
        },
        {
          "internalType": "uint256",
          "name": "attackDamage",
          "type": "uint256"
        }
      ],
      "stateMutability": "view",
      "type": "function"
    },
    {
      "inputs": [],
      "name": "checkIfUserHasNFT",
      "outputs": [
        {
          "components": [
            {
              "internalType": "uint256",
              "name": "characterIndex",
              "type": "uint256"
            },
            {
              "internalType": "string",
              "name": "name",
              "type": "string"
            },
            {
              "internalType": "string",
              "name": "imageURI",
              "type": "string"
            },
            {
              "internalType": "uint256",
              "name": "hp",
              "type": "uint256"
            },
            {
              "internalType": "uint256",
              "name": "maxHp",
              "type": "uint256"
            },
            {
              "internalType": "uint256",
              "name": "attackDamage",
              "type": "uint256"
            }
          ],
          "internalType": "struct MyEpicGame.CharacterAttributes",
          "name": "",
          "type": "tuple"
        }
      ],
      "stateMutability": "view",
      "type": "function"
    },
    {
      "inputs": [],
      "name": "getAllDefaultCharacters",
      "outputs": [
        {
          "components": [
            {
              "internalType": "uint256",
              "name": "characterIndex",
              "type": "uint256"
            },
            {
              "internalType": "string",
              "name": "name",
              "type": "string"
            },
            {
              "internalType": "string",
              "name": "imageURI",
              "type": "string"
            },
            {
              "internalType": "uint256",
              "name": "hp",
              "type": "uint256"
            },
            {
              "internalType": "uint256",
              "name": "maxHp",
              "type": "uint256"
            },
            {
              "internalType": "uint256",
              "name": "attackDamage",
              "type": "uint256"
            }
          ],
          "internalType": "struct MyEpicGame.CharacterAttributes[]",
          "name": "",
          "type": "tuple[]"
        }
      ],
      "stateMutability": "view",
      "type": "function"
    },
    {
      "inputs": [
        {
          "internalType": "uint256",
          "name": "tokenId",
          "type": "uint256"
        }
      ],
      "name": "getApproved",
      "outputs": [
        {
          "internalType": "address",
          "name": "",
          "type": "address"
        }
      ],
      "stateMutability": "view",
      "type": "function"
    },
    {
      "inputs": [],
      "name": "getBigBoss",
      "outputs": [
        {
          "components": [
            {
              "internalType": "string",
              "name": "name",
              "type": "string"
            },
            {
              "internalType": "string",
              "name": "imageURI",
              "type": "string"
            },
            {
              "internalType": "uint256",
              "name": "hp",
              "type": "uint256"
            },
            {
              "internalType": "uint256",
              "name": "maxHp",
              "type": "uint256"
            },
            {
              "internalType": "uint256",
              "name": "attackDamage",
              "type": "uint256"
            }
          ],
          "internalType": "struct MyEpicGame.BigBoss",
          "name": "",
          "type": "tuple"
        }
      ],
      "stateMutability": "view",
      "type": "function"
    },
    {
      "inputs": [
        {
          "internalType": "address",
          "name": "owner",
          "type": "address"
        },
        {
          "internalType": "address",
          "name": "operator",
          "type": "address"
        }
      ],
      "name": "isApprovedForAll",
      "outputs": [
        {
          "internalType": "bool",
          "name": "",
          "type": "bool"
        }
      ],
      "stateMutability": "view",
      "type": "function"
    },
    {
      "inputs": [
        {
          "internalType": "uint256",
          "name": "_characterIndex",
          "type": "uint256"
        }
      ],
      "name": "mintCharacterNFT",
      "outputs": [],
      "stateMutability": "nonpayable",
      "type": "function"
    },
    {
      "inputs": [],
      "name": "name",
      "outputs": [
        {
          "internalType": "string",
          "name": "",
          "type": "string"
        }
      ],
      "stateMutability": "view",
      "type": "function"
    },
    {
      "inputs": [
        {
          "internalType": "uint256",
          "name": "",
          "type": "uint256"
        }
      ],
      "name": "nftHolderAttributes",
      "outputs": [
        {
          "internalType": "uint256",
          "name": "characterIndex",
          "type": "uint256"
        },
        {
          "internalType": "string",
          "name": "name",
          "type": "string"
        },
        {
          "internalType": "string",
          "name": "imageURI",
          "type": "string"
        },
        {
          "internalType": "uint256",
          "name": "hp",
          "type": "uint256"
        },
        {
          "internalType": "uint256",
          "name": "maxHp",
          "type": "uint256"
        },
        {
          "internalType": "uint256",
          "name": "attackDamage",
          "type": "uint256"
        }
      ],
      "stateMutability": "view",
      "type": "function"
    },
    {
      "inputs": [
        {
          "internalType": "address",
          "name": "",
          "type": "address"
        }
      ],
      "name": "nftHolders",
      "outputs": [
        {
          "internalType": "uint256",
          "name": "",
          "type": "uint256"
        }
      ],
      "stateMutability": "view",
      "type": "function"
    },
    {
      "inputs": [
        {
          "internalType": "uint256",
          "name": "tokenId",
          "type": "uint256"
        }
      ],
      "name": "ownerOf",
      "outputs": [
        {
          "internalType": "address",
          "name": "",
          "type": "address"
        }
      ],
      "stateMutability": "view",
      "type": "function"
    },
    {
      "inputs": [],
      "name": "recoverPlayer",
      "outputs": [],
      "stateMutability": "nonpayable",
      "type": "function"
    },
    {
      "inputs": [
        {
          "internalType": "address",
          "name": "from",
          "type": "address"
        },
        {
          "internalType": "address",
          "name": "to",
          "type": "address"
        },
        {
          "internalType": "uint256",
          "name": "tokenId",
          "type": "uint256"
        }
      ],
      "name": "safeTransferFrom",
      "outputs": [],
      "stateMutability": "nonpayable",
      "type": "function"
    },
    {
      "inputs": [
        {
          "internalType": "address",
          "name": "from",
          "type": "address"
        },
        {
          "internalType": "address",
          "name": "to",
          "type": "address"
        },
        {
          "internalType": "uint256",
          "name": "tokenId",
          "type": "uint256"
        },
        {
          "internalType": "bytes",
          "name": "data",
          "type": "bytes"
        }
      ],
      "name": "safeTransferFrom",
      "outputs": [],
      "stateMutability": "nonpayable",
      "type": "function"
    },
    {
      "inputs": [
        {
          "internalType": "address",
          "name": "operator",
          "type": "address"
        },
        {
          "internalType": "bool",
          "name": "approved",
          "type": "bool"
        }
      ],
      "name": "setApprovalForAll",
      "outputs": [],
      "stateMutability": "nonpayable",
      "type": "function"
    },
    {
      "inputs": [
        {
          "internalType": "bytes4",
          "name": "interfaceId",
          "type": "bytes4"
        }
      ],
      "name": "supportsInterface",
      "outputs": [
        {
          "internalType": "bool",
          "name": "",
          "type": "bool"
        }
      ],
      "stateMutability": "view",
      "type": "function"
    },
    {
      "inputs": [],
      "name": "symbol",
      "outputs": [
        {
          "internalType": "string",
          "name": "",
          "type": "string"
        }
      ],
      "stateMutability": "view",
      "type": "function"
    },
    {
      "inputs": [
        {
          "internalType": "uint256",
          "name": "_tokenId",
          "type": "uint256"
        }
      ],
      "name": "tokenURI",
      "outputs": [
        {
          "internalType": "string",
          "name": "",
          "type": "string"
        }
      ],
      "stateMutability": "view",
      "type": "function"
    },
    {
      "inputs": [
        {
          "internalType": "address",
          "name": "from",
          "type": "address"
        },
        {
          "internalType": "address",
          "name": "to",
          "type": "address"
        },
        {
          "internalType": "uint256",
          "name": "tokenId",
          "type": "uint256"
        }
      ],
      "name": "transferFrom",
      "outputs": [],
      "stateMutability": "nonpayable",
      "type": "function"
    }
  ],
  "bytecode": "0x60806040523480156200001157600080fd5b5060405162005c4638038062005c46833981810160405281019062000037919062000a8b565b6040518060400160405280600981526020017f4f6e6550696561636500000000000000000000000000000000000000000000008152506040518060400160405280600981526020017f4f4e4550494541434500000000000000000000000000000000000000000000008152508160009081620000b4919062000e4f565b508060019081620000c6919062000e4f565b50505060005b8851811015620003ff57600c6040518060c001604052808381526020018b8481518110620000ff57620000fe62000f36565b5b602002602001015181526020018a848151811062000122576200012162000f36565b5b6020026020010151815260200189848151811062000145576200014462000f36565b5b6020026020010151815260200189848151811062000168576200016762000f36565b5b602002602001015181526020018884815181106200018b576200018a62000f36565b5b60200260200101518152509080600181540180825580915050600190039060005260206000209060060201600090919091909150600082015181600001556020820151816001019081620001e0919062000e4f565b506040820151816002019081620001f8919062000e4f565b50606082015181600301556080820151816004015560a0820151816005015550506000600c828154811062000232576200023162000f36565b5b90600052602060002090600602016040518060c001604052908160008201548152602001600182018054620002679062000c48565b80601f0160208091040260200160405190810160405280929190818152602001828054620002959062000c48565b8015620002e65780601f10620002ba57610100808354040283529160200191620002e6565b820191906000526020600020905b815481529060010190602001808311620002c857829003601f168201915b50505050508152602001600282018054620003019062000c48565b80601f01602080910402602001604051908101604052809291908181526020018280546200032f9062000c48565b8015620003805780601f10620003545761010080835404028352916020019162000380565b820191906000526020600020905b8154815290600101906020018083116200036257829003601f168201915b5050505050815260200160038201548152602001600482015481526020016005820154815250509050620003e760405180606001604052806027815260200162005bf3602791398260200151836060015184604001516200060060201b62001cc21760201c565b50600181620003f7919062000f94565b9050620000cc565b506040518060a00160405280858152602001848152602001838152602001838152602001828152506006600082015181600001908162000440919062000e4f565b50602082015181600101908162000458919062000e4f565b50604082015181600201556060820151816003015560808201518160040155905050620005db6040518060600160405280602c815260200162005c1a602c913960066000018054620004aa9062000c48565b80601f0160208091040260200160405190810160405280929190818152602001828054620004d89062000c48565b8015620005295780601f10620004fd5761010080835404028352916020019162000529565b820191906000526020600020905b8154815290600101906020018083116200050b57829003601f168201915b505050505060066002015460066001018054620005469062000c48565b80601f0160208091040260200160405190810160405280929190818152602001828054620005749062000c48565b8015620005c55780601f106200059957610100808354040283529160200191620005c5565b820191906000526020600020905b815481529060010190602001808311620005a757829003601f168201915b50505050506200060060201b62001cc21760201c565b620005f2600b620006ac60201b62001d641760201c565b505050505050505062001094565b620006a6848484846040516024016200061d949392919062001032565b6040516020818303038152906040527f5d1a971a000000000000000000000000000000000000000000000000000000007bffffffffffffffffffffffffffffffffffffffffffffffffffffffff19166020820180517bffffffffffffffffffffffffffffffffffffffffffffffffffffffff8381831617835250505050620006c260201b60201c565b50505050565b6001816000016000828254019250508190555050565b60008151905060006a636f6e736f6c652e6c6f679050602083016000808483855afa5050505050565b6000604051905090565b600080fd5b600080fd5b600080fd5b6000601f19601f8301169050919050565b7f4e487b7100000000000000000000000000000000000000000000000000000000600052604160045260246000fd5b6200074f8262000704565b810181811067ffffffffffffffff8211171562000771576200077062000715565b5b80604052505050565b600062000786620006eb565b905062000794828262000744565b919050565b600067ffffffffffffffff821115620007b757620007b662000715565b5b602082029050602081019050919050565b600080fd5b600080fd5b600067ffffffffffffffff821115620007f057620007ef62000715565b5b620007fb8262000704565b9050602081019050919050565b60005b83811015620008285780820151818401526020810190506200080b565b60008484015250505050565b60006200084b6200084584620007d2565b6200077a565b9050828152602081018484840111156200086a5762000869620007cd565b5b6200087784828562000808565b509392505050565b600082601f830112620008975762000896620006ff565b5b8151620008a984826020860162000834565b91505092915050565b6000620008c9620008c38462000799565b6200077a565b90508083825260208201905060208402830185811115620008ef57620008ee620007c8565b5b835b818110156200093d57805167ffffffffffffffff811115620009185762000917620006ff565b5b8086016200092789826200087f565b85526020850194505050602081019050620008f1565b5050509392505050565b600082601f8301126200095f576200095e620006ff565b5b815162000971848260208601620008b2565b91505092915050565b600067ffffffffffffffff82111562000998576200099762000715565b5b602082029050602081019050919050565b6000819050919050565b620009be81620009a9565b8114620009ca57600080fd5b50565b600081519050620009de81620009b3565b92915050565b6000620009fb620009f5846200097a565b6200077a565b9050808382526020820190506020840283018581111562000a215762000a20620007c8565b5b835b8181101562000a4e578062000a398882620009cd565b84526020840193505060208101905062000a23565b5050509392505050565b600082601f83011262000a705762000a6f620006ff565b5b815162000a82848260208601620009e4565b91505092915050565b600080600080600080600080610100898b03121562000aaf5762000aae620006f5565b5b600089015167ffffffffffffffff81111562000ad05762000acf620006fa565b5b62000ade8b828c0162000947565b985050602089015167ffffffffffffffff81111562000b025762000b01620006fa565b5b62000b108b828c0162000947565b975050604089015167ffffffffffffffff81111562000b345762000b33620006fa565b5b62000b428b828c0162000a58565b965050606089015167ffffffffffffffff81111562000b665762000b65620006fa565b5b62000b748b828c0162000a58565b955050608089015167ffffffffffffffff81111562000b985762000b97620006fa565b5b62000ba68b828c016200087f565b94505060a089015167ffffffffffffffff81111562000bca5762000bc9620006fa565b5b62000bd88b828c016200087f565b93505060c062000beb8b828c01620009cd565b92505060e062000bfe8b828c01620009cd565b9150509295985092959890939650565b600081519050919050565b7f4e487b7100000000000000000000000000000000000000000000000000000000600052602260045260246000fd5b6000600282049050600182168062000c6157607f821691505b60208210810362000c775762000c7662000c19565b5b50919050565b60008190508160005260206000209050919050565b60006020601f8301049050919050565b600082821b905092915050565b60006008830262000ce17fffffffffffffffffffffffffffffffffffffffffffffffffffffffffffffffff8262000ca2565b62000ced868362000ca2565b95508019841693508086168417925050509392505050565b6000819050919050565b600062000d3062000d2a62000d2484620009a9565b62000d05565b620009a9565b9050919050565b6000819050919050565b62000d4c8362000d0f565b62000d6462000d5b8262000d37565b84845462000caf565b825550505050565b600090565b62000d7b62000d6c565b62000d8881848462000d41565b505050565b5b8181101562000db05762000da460008262000d71565b60018101905062000d8e565b5050565b601f82111562000dff5762000dc98162000c7d565b62000dd48462000c92565b8101602085101562000de4578190505b62000dfc62000df38562000c92565b83018262000d8d565b50505b505050565b600082821c905092915050565b600062000e246000198460080262000e04565b1980831691505092915050565b600062000e3f838362000e11565b9150826002028217905092915050565b62000e5a8262000c0e565b67ffffffffffffffff81111562000e765762000e7562000715565b5b62000e82825462000c48565b62000e8f82828562000db4565b600060209050601f83116001811462000ec7576000841562000eb2578287015190505b62000ebe858262000e31565b86555062000f2e565b601f19841662000ed78662000c7d565b60005b8281101562000f015784890151825560018201915060208501945060208101905062000eda565b8683101562000f21578489015162000f1d601f89168262000e11565b8355505b6001600288020188555050505b505050505050565b7f4e487b7100000000000000000000000000000000000000000000000000000000600052603260045260246000fd5b7f4e487b7100000000000000000000000000000000000000000000000000000000600052601160045260246000fd5b600062000fa182620009a9565b915062000fae83620009a9565b925082820190508082111562000fc95762000fc862000f65565b5b92915050565b600082825260208201905092915050565b600062000fed8262000c0e565b62000ff9818562000fcf565b93506200100b81856020860162000808565b620010168162000704565b840191505092915050565b6200102c81620009a9565b82525050565b600060808201905081810360008301526200104e818762000fe0565b9050818103602083015262001064818662000fe0565b905062001075604083018562001021565b818103606083015262001089818462000fe0565b905095945050505050565b614b4f80620010a46000396000f3fe608060405234801561001057600080fd5b50600436106101425760003560e01c806395d89b41116100b8578063b953084e1161007c578063b953084e1461037e578063c87b56dd1461039c578063c8cf27f4146103cc578063d4f24c5b146103ea578063e985e9c5146103f4578063f8b81ef71461042457610142565b806395d89b41146102d157806398da4c95146102ef578063a22cb46514610324578063a9c3267914610340578063b88d4fde1461036257610142565b806323b872dd1161010a57806323b872dd146101ff57806342842e0e1461021b5780635bb64eba146102375780636352211e1461024157806370a08231146102715780637df124a1146102a157610142565b806301ffc9a7146101475780630665f9611461017757806306fdde0314610195578063081812fc146101b3578063095ea7b3146101e3575b600080fd5b610161600480360381019061015c9190612e01565b610440565b60405161016e9190612e49565b60405180910390f35b61017f610522565b60405161018c9190612f8a565b60405180910390f35b61019d61067e565b6040516101aa9190612ff6565b60405180910390f35b6101cd60048036038101906101c89190613044565b610710565b6040516101da91906130b2565b60405180910390f35b6101fd60048036038101906101f891906130f9565b610756565b005b61021960048036038101906102149190613139565b61086d565b005b61023560048036038101906102309190613139565b6108cd565b005b61023f6108ed565b005b61025b60048036038101906102569190613044565b610ad3565b60405161026891906130b2565b60405180910390f35b61028b6004803603810190610286919061318c565b610b84565b60405161029891906131c8565b60405180910390f35b6102bb60048036038101906102b6919061318c565b610c3b565b6040516102c891906131c8565b60405180910390f35b6102d9610c53565b6040516102e69190612ff6565b60405180910390f35b61030960048036038101906103049190613044565b610ce5565b60405161031b969594939291906131e3565b60405180910390f35b61033e6004803603810190610339919061327e565b610e31565b005b610348610e47565b6040516103599594939291906132be565b60405180910390f35b61037c60048036038101906103779190613454565b610f7b565b005b610386610fdd565b6040516103939190613629565b60405180910390f35b6103b660048036038101906103b19190613044565b611188565b6040516103c39190612ff6565b60405180910390f35b6103d46113a3565b6040516103e191906136db565b60405180910390f35b6103f261157b565b005b61040e600480360381019061040991906136fd565b611906565b60405161041b9190612e49565b60405180910390f35b61043e60048036038101906104399190613044565b61199a565b005b60007f80ac58cd000000000000000000000000000000000000000000000000000000007bffffffffffffffffffffffffffffffffffffffffffffffffffffffff1916827bffffffffffffffffffffffffffffffffffffffffffffffffffffffff1916148061050b57507f5b5e139f000000000000000000000000000000000000000000000000000000007bffffffffffffffffffffffffffffffffffffffffffffffffffffffff1916827bffffffffffffffffffffffffffffffffffffffffffffffffffffffff1916145b8061051b575061051a82611d7a565b5b9050919050565b61052a612d30565b60066040518060a00160405290816000820180546105479061376c565b80601f01602080910402602001604051908101604052809291908181526020018280546105739061376c565b80156105c05780601f10610595576101008083540402835291602001916105c0565b820191906000526020600020905b8154815290600101906020018083116105a357829003601f168201915b505050505081526020016001820180546105d99061376c565b80601f01602080910402602001604051908101604052809291908181526020018280546106059061376c565b80156106525780601f1061062757610100808354040283529160200191610652565b820191906000526020600020905b81548152906001019060200180831161063557829003601f168201915b505050505081526020016002820154815260200160038201548152602001600482015481525050905090565b60606000805461068d9061376c565b80601f01602080910402602001604051908101604052809291908181526020018280546106b99061376c565b80156107065780601f106106db57610100808354040283529160200191610706565b820191906000526020600020905b8154815290600101906020018083116106e957829003601f168201915b5050505050905090565b600061071b82611de4565b6004600083815260200190815260200160002060009054906101000a900473ffffffffffffffffffffffffffffffffffffffff169050919050565b600061076182610ad3565b90508073ffffffffffffffffffffffffffffffffffffffff168373ffffffffffffffffffffffffffffffffffffffff16036107d1576040517f08c379a00000000000000000000000000000000000000000000000000000000081526004016107c89061380f565b60405180910390fd5b8073ffffffffffffffffffffffffffffffffffffffff166107f0611e2f565b73ffffffffffffffffffffffffffffffffffffffff16148061081f575061081e81610819611e2f565b611906565b5b61085e576040517f08c379a0000000000000000000000000000000000000000000000000000000008152600401610855906138a1565b60405180910390fd5b6108688383611e37565b505050565b61087e610878611e2f565b82611ef0565b6108bd576040517f08c379a00000000000000000000000000000000000000000000000000000000081526004016108b490613933565b60405180910390fd5b6108c8838383611f85565b505050565b6108e883838360405180602001604052806000815250610f7b565b505050565b6000600e60003373ffffffffffffffffffffffffffffffffffffffff1673ffffffffffffffffffffffffffffffffffffffff1681526020019081526020016000205490506000600d60008381526020019081526020016000209050610a006040518060600160405280603f8152602001614adb603f91398260010180546109739061376c565b80601f016020809104026020016040519081016040528092919081815260200182805461099f9061376c565b80156109ec5780601f106109c1576101008083540402835291602001916109ec565b820191906000526020600020905b8154815290600101906020018083116109cf57829003601f168201915b5050505050836003015484600501546121eb565b8060040154816003015403610a4a576040517f08c379a0000000000000000000000000000000000000000000000000000000008152600401610a419061399f565b60405180910390fd5b8060040154816003015414610a6757806004015481600301819055505b610a8d604051806060016040528060278152602001614ab460279139826003015461228d565b7f2693df3bfab6aa896209282141a61eb297e9f601d05654082ddf77c06288a7306006600201548260030154604051610ac79291906139bf565b60405180910390a15050565b6000806002600084815260200190815260200160002060009054906101000a900473ffffffffffffffffffffffffffffffffffffffff169050600073ffffffffffffffffffffffffffffffffffffffff168173ffffffffffffffffffffffffffffffffffffffff1603610b7b576040517f08c379a0000000000000000000000000000000000000000000000000000000008152600401610b7290613a34565b60405180910390fd5b80915050919050565b60008073ffffffffffffffffffffffffffffffffffffffff168273ffffffffffffffffffffffffffffffffffffffff1603610bf4576040517f08c379a0000000000000000000000000000000000000000000000000000000008152600401610beb90613ac6565b60405180910390fd5b600360008373ffffffffffffffffffffffffffffffffffffffff1673ffffffffffffffffffffffffffffffffffffffff168152602001908152602001600020549050919050565b600e6020528060005260406000206000915090505481565b606060018054610c629061376c565b80601f0160208091040260200160405190810160405280929190818152602001828054610c8e9061376c565b8015610cdb5780601f10610cb057610100808354040283529160200191610cdb565b820191906000526020600020905b815481529060010190602001808311610cbe57829003601f168201915b5050505050905090565b600d602052806000526040600020600091509050806000015490806001018054610d0e9061376c565b80601f0160208091040260200160405190810160405280929190818152602001828054610d3a9061376c565b8015610d875780601f10610d5c57610100808354040283529160200191610d87565b820191906000526020600020905b815481529060010190602001808311610d6a57829003601f168201915b505050505090806002018054610d9c9061376c565b80601f0160208091040260200160405190810160405280929190818152602001828054610dc89061376c565b8015610e155780601f10610dea57610100808354040283529160200191610e15565b820191906000526020600020905b815481529060010190602001808311610df857829003601f168201915b5050505050908060030154908060040154908060050154905086565b610e43610e3c611e2f565b8383612329565b5050565b6006806000018054610e589061376c565b80601f0160208091040260200160405190810160405280929190818152602001828054610e849061376c565b8015610ed15780601f10610ea657610100808354040283529160200191610ed1565b820191906000526020600020905b815481529060010190602001808311610eb457829003601f168201915b505050505090806001018054610ee69061376c565b80601f0160208091040260200160405190810160405280929190818152602001828054610f129061376c565b8015610f5f5780601f10610f3457610100808354040283529160200191610f5f565b820191906000526020600020905b815481529060010190602001808311610f4257829003601f168201915b5050505050908060020154908060030154908060040154905085565b610f8c610f86611e2f565b83611ef0565b610fcb576040517f08c379a0000000000000000000000000000000000000000000000000000000008152600401610fc290613933565b60405180910390fd5b610fd784848484612495565b50505050565b6060600c805480602002602001604051908101604052809291908181526020016000905b8282101561117f57838290600052602060002090600602016040518060c00160405290816000820154815260200160018201805461103e9061376c565b80601f016020809104026020016040519081016040528092919081815260200182805461106a9061376c565b80156110b75780601f1061108c576101008083540402835291602001916110b7565b820191906000526020600020905b81548152906001019060200180831161109a57829003601f168201915b505050505081526020016002820180546110d09061376c565b80601f01602080910402602001604051908101604052809291908181526020018280546110fc9061376c565b80156111495780601f1061111e57610100808354040283529160200191611149565b820191906000526020600020905b81548152906001019060200180831161112c57829003601f168201915b50505050508152602001600382015481526020016004820154815260200160058201548152505081526020019060010190611001565b50505050905090565b60606000600d60008481526020019081526020016000206040518060c0016040529081600082015481526020016001820180546111c49061376c565b80601f01602080910402602001604051908101604052809291908181526020018280546111f09061376c565b801561123d5780601f106112125761010080835404028352916020019161123d565b820191906000526020600020905b81548152906001019060200180831161122057829003601f168201915b505050505081526020016002820180546112569061376c565b80601f01602080910402602001604051908101604052809291908181526020018280546112829061376c565b80156112cf5780601f106112a4576101008083540402835291602001916112cf565b820191906000526020600020905b8154815290600101906020018083116112b257829003601f168201915b5050505050815260200160038201548152602001600482015481526020016005820154815250509050600061130782606001516124f1565b9050600061131883608001516124f1565b905060006113298460a001516124f1565b9050600061136f856020015161133e896124f1565b876040015187878760405160200161135b96959493929190613df4565b604051602081830303815290604052612651565b90506000816040516020016113849190613ee5565b6040516020818303038152906040529050809650505050505050919050565b6113ab612d5f565b6000600e60003373ffffffffffffffffffffffffffffffffffffffff1673ffffffffffffffffffffffffffffffffffffffff168152602001908152602001600020549050600081111561156a57600d60008281526020019081526020016000206040518060c0016040529081600082015481526020016001820180546114309061376c565b80601f016020809104026020016040519081016040528092919081815260200182805461145c9061376c565b80156114a95780601f1061147e576101008083540402835291602001916114a9565b820191906000526020600020905b81548152906001019060200180831161148c57829003601f168201915b505050505081526020016002820180546114c29061376c565b80601f01602080910402602001604051908101604052809291908181526020018280546114ee9061376c565b801561153b5780601f106115105761010080835404028352916020019161153b565b820191906000526020600020905b81548152906001019060200180831161151e57829003601f168201915b505050505081526020016003820154815260200160048201548152602001600582015481525050915050611578565b611572612d5f565b80925050505b90565b6000600e60003373ffffffffffffffffffffffffffffffffffffffff1673ffffffffffffffffffffffffffffffffffffffff1681526020019081526020016000205490506000600d6000838152602001908152602001600020905061168e6040518060600160405280603e81526020016149df603e91398260010180546116019061376c565b80601f016020809104026020016040519081016040528092919081815260200182805461162d9061376c565b801561167a5780601f1061164f5761010080835404028352916020019161167a565b820191906000526020600020905b81548152906001019060200180831161165d57829003601f168201915b5050505050836003015484600501546121eb565b6117666040518060400160405280601b81526020017f426f73732025732068617320257320485020616e642025732041440000000000815250600660000180546116d79061376c565b80601f01602080910402602001604051908101604052809291908181526020018280546117039061376c565b80156117505780601f1061172557610100808354040283529160200191611750565b820191906000526020600020905b81548152906001019060200180831161173357829003601f168201915b50505050506006600201546006600401546121eb565b60008160030154116117ad576040517f08c379a00000000000000000000000000000000000000000000000000000000081526004016117a490613f79565b60405180910390fd5b6000600660020154116117f5576040517f08c379a00000000000000000000000000000000000000000000000000000000081526004016117ec9061400b565b60405180910390fd5b80600501546006600201541015611816576000600660020181905550611835565b806005015460066002015461182b919061405a565b6006600201819055505b61185c6040518060600160405280602581526020016149ba6025913960066002015461228d565b6006600401548160030154101561187c576000816003018190555061189a565b6006600401548160030154611891919061405a565b81600301819055505b6118c0604051806060016040528060288152602001614a8c60289139826003015461228d565b7f2693df3bfab6aa896209282141a61eb297e9f601d05654082ddf77c06288a73060066002015482600301546040516118fa9291906139bf565b60405180910390a15050565b6000600560008473ffffffffffffffffffffffffffffffffffffffff1673ffffffffffffffffffffffffffffffffffffffff16815260200190815260200160002060008373ffffffffffffffffffffffffffffffffffffffff1673ffffffffffffffffffffffffffffffffffffffff16815260200190815260200160002060009054906101000a900460ff16905092915050565b60006119a6600b6127e8565b90506119b233826127f6565b6040518060c00160405280828152602001600c84815481106119d7576119d661408e565b5b906000526020600020906006020160010180546119f39061376c565b80601f0160208091040260200160405190810160405280929190818152602001828054611a1f9061376c565b8015611a6c5780601f10611a4157610100808354040283529160200191611a6c565b820191906000526020600020905b815481529060010190602001808311611a4f57829003601f168201915b50505050508152602001600c8481548110611a8a57611a8961408e565b5b90600052602060002090600602016002018054611aa69061376c565b80601f0160208091040260200160405190810160405280929190818152602001828054611ad29061376c565b8015611b1f5780601f10611af457610100808354040283529160200191611b1f565b820191906000526020600020905b815481529060010190602001808311611b0257829003601f168201915b50505050508152602001600c8481548110611b3d57611b3c61408e565b5b9060005260206000209060060201600301548152602001600c8481548110611b6857611b6761408e565b5b9060005260206000209060060201600301548152602001600c8481548110611b9357611b9261408e565b5b906000526020600020906006020160050154815250600d6000838152602001908152602001600020600082015181600001556020820151816001019081611bda9190614269565b506040820151816002019081611bf09190614269565b50606082015181600301556080820151816004015560a08201518160050155905050611c356040518060600160405280602f8152602001614a5d602f91398284612814565b80600e60003373ffffffffffffffffffffffffffffffffffffffff1673ffffffffffffffffffffffffffffffffffffffff16815260200190815260200160002081905550611c83600b611d64565b7f4bc303fd457a97b4691b9af582ce71868a3d258638c8d4f8c60988a0f0bfb8cd338284604051611cb69392919061433b565b60405180910390a15050565b611d5e84848484604051602401611cdc9493929190614372565b6040516020818303038152906040527f5d1a971a000000000000000000000000000000000000000000000000000000007bffffffffffffffffffffffffffffffffffffffffffffffffffffffff19166020820180517bffffffffffffffffffffffffffffffffffffffffffffffffffffffff83818316178352505050506128b3565b50505050565b6001816000016000828254019250508190555050565b60007f01ffc9a7000000000000000000000000000000000000000000000000000000007bffffffffffffffffffffffffffffffffffffffffffffffffffffffff1916827bffffffffffffffffffffffffffffffffffffffffffffffffffffffff1916149050919050565b611ded816128dc565b611e2c576040517f08c379a0000000000000000000000000000000000000000000000000000000008152600401611e2390613a34565b60405180910390fd5b50565b600033905090565b816004600083815260200190815260200160002060006101000a81548173ffffffffffffffffffffffffffffffffffffffff021916908373ffffffffffffffffffffffffffffffffffffffff160217905550808273ffffffffffffffffffffffffffffffffffffffff16611eaa83610ad3565b73ffffffffffffffffffffffffffffffffffffffff167f8c5be1e5ebec7d5bd14f71427d1e84f3dd0314c0f7b2291e5b200ac8c7c3b92560405160405180910390a45050565b600080611efc83610ad3565b90508073ffffffffffffffffffffffffffffffffffffffff168473ffffffffffffffffffffffffffffffffffffffff161480611f3e5750611f3d8185611906565b5b80611f7c57508373ffffffffffffffffffffffffffffffffffffffff16611f6484610710565b73ffffffffffffffffffffffffffffffffffffffff16145b91505092915050565b8273ffffffffffffffffffffffffffffffffffffffff16611fa582610ad3565b73ffffffffffffffffffffffffffffffffffffffff1614611ffb576040517f08c379a0000000000000000000000000000000000000000000000000000000008152600401611ff29061443e565b60405180910390fd5b600073ffffffffffffffffffffffffffffffffffffffff168273ffffffffffffffffffffffffffffffffffffffff160361206a576040517f08c379a0000000000000000000000000000000000000000000000000000000008152600401612061906144d0565b60405180910390fd5b612075838383612948565b612080600082611e37565b6001600360008573ffffffffffffffffffffffffffffffffffffffff1673ffffffffffffffffffffffffffffffffffffffff16815260200190815260200160002060008282546120d0919061405a565b925050819055506001600360008473ffffffffffffffffffffffffffffffffffffffff1673ffffffffffffffffffffffffffffffffffffffff168152602001908152602001600020600082825461212791906144f0565b92505081905550816002600083815260200190815260200160002060006101000a81548173ffffffffffffffffffffffffffffffffffffffff021916908373ffffffffffffffffffffffffffffffffffffffff160217905550808273ffffffffffffffffffffffffffffffffffffffff168473ffffffffffffffffffffffffffffffffffffffff167fddf252ad1be2c89b69c2b068fc378daa952ba7f163c4a11628f55a4df523b3ef60405160405180910390a46121e683838361294d565b505050565b612287848484846040516024016122059493929190614524565b6040516020818303038152906040527ff45d7d2c000000000000000000000000000000000000000000000000000000007bffffffffffffffffffffffffffffffffffffffffffffffffffffffff19166020820180517bffffffffffffffffffffffffffffffffffffffffffffffffffffffff83818316178352505050506128b3565b50505050565b61232582826040516024016122a3929190614577565b6040516020818303038152906040527fb60e72cc000000000000000000000000000000000000000000000000000000007bffffffffffffffffffffffffffffffffffffffffffffffffffffffff19166020820180517bffffffffffffffffffffffffffffffffffffffffffffffffffffffff83818316178352505050506128b3565b5050565b8173ffffffffffffffffffffffffffffffffffffffff168373ffffffffffffffffffffffffffffffffffffffff1603612397576040517f08c379a000000000000000000000000000000000000000000000000000000000815260040161238e906145f3565b60405180910390fd5b80600560008573ffffffffffffffffffffffffffffffffffffffff1673ffffffffffffffffffffffffffffffffffffffff16815260200190815260200160002060008473ffffffffffffffffffffffffffffffffffffffff1673ffffffffffffffffffffffffffffffffffffffff16815260200190815260200160002060006101000a81548160ff0219169083151502179055508173ffffffffffffffffffffffffffffffffffffffff168373ffffffffffffffffffffffffffffffffffffffff167f17307eab39ab6107e8899845ad3d59bd9653f200f220920489ca2b5937696c31836040516124889190612e49565b60405180910390a3505050565b6124a0848484611f85565b6124ac84848484612952565b6124eb576040517f08c379a00000000000000000000000000000000000000000000000000000000081526004016124e290614685565b60405180910390fd5b50505050565b606060008203612538576040518060400160405280600181526020017f3000000000000000000000000000000000000000000000000000000000000000815250905061264c565b600082905060005b6000821461256a578080612553906146a5565b915050600a82612563919061471c565b9150612540565b60008167ffffffffffffffff81111561258657612585613329565b5b6040519080825280601f01601f1916602001820160405280156125b85781602001600182028036833780820191505090505b5090505b60008514612645576001826125d1919061405a565b9150600a856125e0919061474d565b60306125ec91906144f0565b60f81b8183815181106126025761260161408e565b5b60200101907effffffffffffffffffffffffffffffffffffffffffffffffffffffffffffff1916908160001a905350600a8561263e919061471c565b94506125bc565b8093505050505b919050565b60606000825190506000810361267957604051806020016040528060008152509150506127e3565b6000600360028361268a91906144f0565b612694919061471c565b60046126a0919061477e565b905060006020826126b191906144f0565b67ffffffffffffffff8111156126ca576126c9613329565b5b6040519080825280601f01601f1916602001820160405280156126fc5781602001600182028036833780820191505090505b5090506000604051806060016040528060408152602001614a1d604091399050600181016020830160005b868110156127a05760038101905062ffffff818a015116603f8160121c168401518060081b905060ff603f83600c1c1686015116810190508060081b905060ff603f8360061c1686015116810190508060081b905060ff603f831686015116810190508060e01b90508084526004840193505050612727565b5060038606600181146127ba57600281146127ca576127d5565b613d3d60f01b60028303526127d5565b603d60f81b60018303525b508484525050819450505050505b919050565b600081600001549050919050565b612810828260405180602001604052806000815250612ad9565b5050565b6128ae83838360405160240161282c939291906147c0565b6040516020818303038152906040527fca47c4eb000000000000000000000000000000000000000000000000000000007bffffffffffffffffffffffffffffffffffffffffffffffffffffffff19166020820180517bffffffffffffffffffffffffffffffffffffffffffffffffffffffff83818316178352505050506128b3565b505050565b60008151905060006a636f6e736f6c652e6c6f679050602083016000808483855afa5050505050565b60008073ffffffffffffffffffffffffffffffffffffffff166002600084815260200190815260200160002060009054906101000a900473ffffffffffffffffffffffffffffffffffffffff1673ffffffffffffffffffffffffffffffffffffffff1614159050919050565b505050565b505050565b60006129738473ffffffffffffffffffffffffffffffffffffffff16612b34565b15612acc578373ffffffffffffffffffffffffffffffffffffffff1663150b7a0261299c611e2f565b8786866040518563ffffffff1660e01b81526004016129be9493929190614853565b6020604051808303816000875af19250505080156129fa57506040513d601f19601f820116820180604052508101906129f791906148b4565b60015b612a7c573d8060008114612a2a576040519150601f19603f3d011682016040523d82523d6000602084013e612a2f565b606091505b506000815103612a74576040517f08c379a0000000000000000000000000000000000000000000000000000000008152600401612a6b90614685565b60405180910390fd5b805181602001fd5b63150b7a0260e01b7bffffffffffffffffffffffffffffffffffffffffffffffffffffffff1916817bffffffffffffffffffffffffffffffffffffffffffffffffffffffff191614915050612ad1565b600190505b949350505050565b612ae38383612b57565b612af06000848484612952565b612b2f576040517f08c379a0000000000000000000000000000000000000000000000000000000008152600401612b2690614685565b60405180910390fd5b505050565b6000808273ffffffffffffffffffffffffffffffffffffffff163b119050919050565b600073ffffffffffffffffffffffffffffffffffffffff168273ffffffffffffffffffffffffffffffffffffffff1603612bc6576040517f08c379a0000000000000000000000000000000000000000000000000000000008152600401612bbd9061492d565b60405180910390fd5b612bcf816128dc565b15612c0f576040517f08c379a0000000000000000000000000000000000000000000000000000000008152600401612c0690614999565b60405180910390fd5b612c1b60008383612948565b6001600360008473ffffffffffffffffffffffffffffffffffffffff1673ffffffffffffffffffffffffffffffffffffffff1681526020019081526020016000206000828254612c6b91906144f0565b92505081905550816002600083815260200190815260200160002060006101000a81548173ffffffffffffffffffffffffffffffffffffffff021916908373ffffffffffffffffffffffffffffffffffffffff160217905550808273ffffffffffffffffffffffffffffffffffffffff16600073ffffffffffffffffffffffffffffffffffffffff167fddf252ad1be2c89b69c2b068fc378daa952ba7f163c4a11628f55a4df523b3ef60405160405180910390a4612d2c6000838361294d565b5050565b6040518060a0016040528060608152602001606081526020016000815260200160008152602001600081525090565b6040518060c001604052806000815260200160608152602001606081526020016000815260200160008152602001600081525090565b6000604051905090565b600080fd5b600080fd5b60007fffffffff0000000000000000000000000000000000000000000000000000000082169050919050565b612dde81612da9565b8114612de957600080fd5b50565b600081359050612dfb81612dd5565b92915050565b600060208284031215612e1757612e16612d9f565b5b6000612e2584828501612dec565b91505092915050565b60008115159050919050565b612e4381612e2e565b82525050565b6000602082019050612e5e6000830184612e3a565b92915050565b600081519050919050565b600082825260208201905092915050565b60005b83811015612e9e578082015181840152602081019050612e83565b60008484015250505050565b6000601f19601f8301169050919050565b6000612ec682612e64565b612ed08185612e6f565b9350612ee0818560208601612e80565b612ee981612eaa565b840191505092915050565b6000819050919050565b612f0781612ef4565b82525050565b600060a0830160008301518482036000860152612f2a8282612ebb565b91505060208301518482036020860152612f448282612ebb565b9150506040830151612f596040860182612efe565b506060830151612f6c6060860182612efe565b506080830151612f7f6080860182612efe565b508091505092915050565b60006020820190508181036000830152612fa48184612f0d565b905092915050565b600082825260208201905092915050565b6000612fc882612e64565b612fd28185612fac565b9350612fe2818560208601612e80565b612feb81612eaa565b840191505092915050565b600060208201905081810360008301526130108184612fbd565b905092915050565b61302181612ef4565b811461302c57600080fd5b50565b60008135905061303e81613018565b92915050565b60006020828403121561305a57613059612d9f565b5b60006130688482850161302f565b91505092915050565b600073ffffffffffffffffffffffffffffffffffffffff82169050919050565b600061309c82613071565b9050919050565b6130ac81613091565b82525050565b60006020820190506130c760008301846130a3565b92915050565b6130d681613091565b81146130e157600080fd5b50565b6000813590506130f3816130cd565b92915050565b600080604083850312156131105761310f612d9f565b5b600061311e858286016130e4565b925050602061312f8582860161302f565b9150509250929050565b60008060006060848603121561315257613151612d9f565b5b6000613160868287016130e4565b9350506020613171868287016130e4565b92505060406131828682870161302f565b9150509250925092565b6000602082840312156131a2576131a1612d9f565b5b60006131b0848285016130e4565b91505092915050565b6131c281612ef4565b82525050565b60006020820190506131dd60008301846131b9565b92915050565b600060c0820190506131f860008301896131b9565b818103602083015261320a8188612fbd565b9050818103604083015261321e8187612fbd565b905061322d60608301866131b9565b61323a60808301856131b9565b61324760a08301846131b9565b979650505050505050565b61325b81612e2e565b811461326657600080fd5b50565b60008135905061327881613252565b92915050565b6000806040838503121561329557613294612d9f565b5b60006132a3858286016130e4565b92505060206132b485828601613269565b9150509250929050565b600060a08201905081810360008301526132d88188612fbd565b905081810360208301526132ec8187612fbd565b90506132fb60408301866131b9565b61330860608301856131b9565b61331560808301846131b9565b9695505050505050565b600080fd5b600080fd5b7f4e487b7100000000000000000000000000000000000000000000000000000000600052604160045260246000fd5b61336182612eaa565b810181811067ffffffffffffffff821117156133805761337f613329565b5b80604052505050565b6000613393612d95565b905061339f8282613358565b919050565b600067ffffffffffffffff8211156133bf576133be613329565b5b6133c882612eaa565b9050602081019050919050565b82818337600083830152505050565b60006133f76133f2846133a4565b613389565b90508281526020810184848401111561341357613412613324565b5b61341e8482856133d5565b509392505050565b600082601f83011261343b5761343a61331f565b5b813561344b8482602086016133e4565b91505092915050565b6000806000806080858703121561346e5761346d612d9f565b5b600061347c878288016130e4565b945050602061348d878288016130e4565b935050604061349e8782880161302f565b925050606085013567ffffffffffffffff8111156134bf576134be612da4565b5b6134cb87828801613426565b91505092959194509250565b600081519050919050565b600082825260208201905092915050565b6000819050602082019050919050565b600060c08301600083015161351b6000860182612efe565b50602083015184820360208601526135338282612ebb565b9150506040830151848203604086015261354d8282612ebb565b91505060608301516135626060860182612efe565b5060808301516135756080860182612efe565b5060a083015161358860a0860182612efe565b508091505092915050565b600061359f8383613503565b905092915050565b6000602082019050919050565b60006135bf826134d7565b6135c981856134e2565b9350836020820285016135db856134f3565b8060005b8581101561361757848403895281516135f88582613593565b9450613603836135a7565b925060208a019950506001810190506135df565b50829750879550505050505092915050565b6000602082019050818103600083015261364381846135b4565b905092915050565b600060c0830160008301516136636000860182612efe565b506020830151848203602086015261367b8282612ebb565b915050604083015184820360408601526136958282612ebb565b91505060608301516136aa6060860182612efe565b5060808301516136bd6080860182612efe565b5060a08301516136d060a0860182612efe565b508091505092915050565b600060208201905081810360008301526136f5818461364b565b905092915050565b6000806040838503121561371457613713612d9f565b5b6000613722858286016130e4565b9250506020613733858286016130e4565b9150509250929050565b7f4e487b7100000000000000000000000000000000000000000000000000000000600052602260045260246000fd5b6000600282049050600182168061378457607f821691505b6020821081036137975761379661373d565b5b50919050565b7f4552433732313a20617070726f76616c20746f2063757272656e74206f776e6560008201527f7200000000000000000000000000000000000000000000000000000000000000602082015250565b60006137f9602183612fac565b91506138048261379d565b604082019050919050565b60006020820190508181036000830152613828816137ec565b9050919050565b7f4552433732313a20617070726f76652063616c6c6572206973206e6f7420746f60008201527f6b656e206f776e6572206e6f7220617070726f76656420666f7220616c6c0000602082015250565b600061388b603e83612fac565b91506138968261382f565b604082019050919050565b600060208201905081810360008301526138ba8161387e565b9050919050565b7f4552433732313a2063616c6c6572206973206e6f7420746f6b656e206f776e6560008201527f72206e6f7220617070726f766564000000000000000000000000000000000000602082015250565b600061391d602e83612fac565b9150613928826138c1565b604082019050919050565b6000602082019050818103600083015261394c81613910565b9050919050565b7f4572726f723a206368617261637465722068617665206d617848502e00000000600082015250565b6000613989601c83612fac565b915061399482613953565b602082019050919050565b600060208201905081810360008301526139b88161397c565b9050919050565b60006040820190506139d460008301856131b9565b6139e160208301846131b9565b9392505050565b7f4552433732313a20696e76616c696420746f6b656e2049440000000000000000600082015250565b6000613a1e601883612fac565b9150613a29826139e8565b602082019050919050565b60006020820190508181036000830152613a4d81613a11565b9050919050565b7f4552433732313a2061646472657373207a65726f206973206e6f74206120766160008201527f6c6964206f776e65720000000000000000000000000000000000000000000000602082015250565b6000613ab0602983612fac565b9150613abb82613a54565b604082019050919050565b60006020820190508181036000830152613adf81613aa3565b9050919050565b600081905092915050565b7f7b226e616d65223a202200000000000000000000000000000000000000000000600082015250565b6000613b27600a83613ae6565b9150613b3282613af1565b600a82019050919050565b6000613b4882612e64565b613b528185613ae6565b9350613b62818560208601612e80565b80840191505092915050565b7f202d2d204e465420233a20000000000000000000000000000000000000000000600082015250565b6000613ba4600b83613ae6565b9150613baf82613b6e565b600b82019050919050565b7f222c20226465736372697074696f6e223a20225468697320697320616e204e4660008201527f542074686174206c6574732070656f706c6520706c617920696e20746865206760208201527f616d65204d657461766572736520536c6179657221222c2022696d616765223a60408201527f2022697066733a2f2f0000000000000000000000000000000000000000000000606082015250565b6000613c62606983613ae6565b9150613c6d82613bba565b606982019050919050565b7f222c202261747472696275746573223a205b207b202274726169745f7479706560008201527f223a20224865616c746820506f696e7473222c202276616c7565223a20000000602082015250565b6000613cd4603d83613ae6565b9150613cdf82613c78565b603d82019050919050565b7f2c20226d61785f76616c7565223a000000000000000000000000000000000000600082015250565b6000613d20600e83613ae6565b9150613d2b82613cea565b600e82019050919050565b7f7d2c207b202274726169745f74797065223a202241747461636b2044616d616760008201527f65222c202276616c7565223a2000000000000000000000000000000000000000602082015250565b6000613d92602d83613ae6565b9150613d9d82613d36565b602d82019050919050565b7f7d205d7d00000000000000000000000000000000000000000000000000000000600082015250565b6000613dde600483613ae6565b9150613de982613da8565b600482019050919050565b6000613dff82613b1a565b9150613e0b8289613b3d565b9150613e1682613b97565b9150613e228288613b3d565b9150613e2d82613c55565b9150613e398287613b3d565b9150613e4482613cc7565b9150613e508286613b3d565b9150613e5b82613d13565b9150613e678285613b3d565b9150613e7282613d85565b9150613e7e8284613b3d565b9150613e8982613dd1565b9150819050979650505050505050565b7f646174613a6170706c69636174696f6e2f6a736f6e3b6261736536342c000000600082015250565b6000613ecf601d83613ae6565b9150613eda82613e99565b601d82019050919050565b6000613ef082613ec2565b9150613efc8284613b3d565b915081905092915050565b7f4572726f723a20636861726163746572206d757374206861766520485020746f60008201527f2061747461636b20626f73732e00000000000000000000000000000000000000602082015250565b6000613f63602d83612fac565b9150613f6e82613f07565b604082019050919050565b60006020820190508181036000830152613f9281613f56565b9050919050565b7f4572726f723a20626f7373206d757374206861766520485020746f206174746160008201527f636b20636861726163746572732e000000000000000000000000000000000000602082015250565b6000613ff5602e83612fac565b915061400082613f99565b604082019050919050565b6000602082019050818103600083015261402481613fe8565b9050919050565b7f4e487b7100000000000000000000000000000000000000000000000000000000600052601160045260246000fd5b600061406582612ef4565b915061407083612ef4565b92508282039050818111156140885761408761402b565b5b92915050565b7f4e487b7100000000000000000000000000000000000000000000000000000000600052603260045260246000fd5b60008190508160005260206000209050919050565b60006020601f8301049050919050565b600082821b905092915050565b60006008830261411f7fffffffffffffffffffffffffffffffffffffffffffffffffffffffffffffffff826140e2565b61412986836140e2565b95508019841693508086168417925050509392505050565b6000819050919050565b600061416661416161415c84612ef4565b614141565b612ef4565b9050919050565b6000819050919050565b6141808361414b565b61419461418c8261416d565b8484546140ef565b825550505050565b600090565b6141a961419c565b6141b4818484614177565b505050565b5b818110156141d8576141cd6000826141a1565b6001810190506141ba565b5050565b601f82111561421d576141ee816140bd565b6141f7846140d2565b81016020851015614206578190505b61421a614212856140d2565b8301826141b9565b50505b505050565b600082821c905092915050565b600061424060001984600802614222565b1980831691505092915050565b6000614259838361422f565b9150826002028217905092915050565b61427282612e64565b67ffffffffffffffff81111561428b5761428a613329565b5b614295825461376c565b6142a08282856141dc565b600060209050601f8311600181146142d357600084156142c1578287015190505b6142cb858261424d565b865550614333565b601f1984166142e1866140bd565b60005b82811015614309578489015182556001820191506020850194506020810190506142e4565b868310156143265784890151614322601f89168261422f565b8355505b6001600288020188555050505b505050505050565b600060608201905061435060008301866130a3565b61435d60208301856131b9565b61436a60408301846131b9565b949350505050565b6000608082019050818103600083015261438c8187612fbd565b905081810360208301526143a08186612fbd565b90506143af60408301856131b9565b81810360608301526143c18184612fbd565b905095945050505050565b7f4552433732313a207472616e736665722066726f6d20696e636f72726563742060008201527f6f776e6572000000000000000000000000000000000000000000000000000000602082015250565b6000614428602583612fac565b9150614433826143cc565b604082019050919050565b600060208201905081810360008301526144578161441b565b9050919050565b7f4552433732313a207472616e7366657220746f20746865207a65726f2061646460008201527f7265737300000000000000000000000000000000000000000000000000000000602082015250565b60006144ba602483612fac565b91506144c58261445e565b604082019050919050565b600060208201905081810360008301526144e9816144ad565b9050919050565b60006144fb82612ef4565b915061450683612ef4565b925082820190508082111561451e5761451d61402b565b5b92915050565b6000608082019050818103600083015261453e8187612fbd565b905081810360208301526145528186612fbd565b905061456160408301856131b9565b61456e60608301846131b9565b95945050505050565b600060408201905081810360008301526145918185612fbd565b90506145a060208301846131b9565b9392505050565b7f4552433732313a20617070726f766520746f2063616c6c657200000000000000600082015250565b60006145dd601983612fac565b91506145e8826145a7565b602082019050919050565b6000602082019050818103600083015261460c816145d0565b9050919050565b7f4552433732313a207472616e7366657220746f206e6f6e20455243373231526560008201527f63656976657220696d706c656d656e7465720000000000000000000000000000602082015250565b600061466f603283612fac565b915061467a82614613565b604082019050919050565b6000602082019050818103600083015261469e81614662565b9050919050565b60006146b082612ef4565b91507fffffffffffffffffffffffffffffffffffffffffffffffffffffffffffffffff82036146e2576146e161402b565b5b600182019050919050565b7f4e487b7100000000000000000000000000000000000000000000000000000000600052601260045260246000fd5b600061472782612ef4565b915061473283612ef4565b925082614742576147416146ed565b5b828204905092915050565b600061475882612ef4565b915061476383612ef4565b925082614773576147726146ed565b5b828206905092915050565b600061478982612ef4565b915061479483612ef4565b92508282026147a281612ef4565b915082820484148315176147b9576147b861402b565b5b5092915050565b600060608201905081810360008301526147da8186612fbd565b90506147e960208301856131b9565b6147f660408301846131b9565b949350505050565b600081519050919050565b600082825260208201905092915050565b6000614825826147fe565b61482f8185614809565b935061483f818560208601612e80565b61484881612eaa565b840191505092915050565b600060808201905061486860008301876130a3565b61487560208301866130a3565b61488260408301856131b9565b8181036060830152614894818461481a565b905095945050505050565b6000815190506148ae81612dd5565b92915050565b6000602082840312156148ca576148c9612d9f565b5b60006148d88482850161489f565b91505092915050565b7f4552433732313a206d696e7420746f20746865207a65726f2061646472657373600082015250565b6000614917602083612fac565b9150614922826148e1565b602082019050919050565b600060208201905081810360008301526149468161490a565b9050919050565b7f4552433732313a20746f6b656e20616c7265616479206d696e74656400000000600082015250565b6000614983601c83612fac565b915061498e8261494d565b602082019050919050565b600060208201905081810360008301526149b281614976565b905091905056fe506c617965722061747461636b656420626f73732e204e657720626f73732068703a2025730a506c617965722077697468206368617261637465722025732061626f757420746f2061747461636b2e2048617320257320485020616e642025732041444142434445464748494a4b4c4d4e4f505152535455565758595a6162636465666768696a6b6c6d6e6f707172737475767778797a303132333435363738392b2f4d696e746564204e4654207769746820746f6b656e496420257320616e64206368617263746572496e646578202573426f73732061747461636b656420706c617965722e204e657720706c617965722068703a2025730a506c6179657220686173207265636f76657265642e204e657720506c617965722068703a2025730a506c617965722077697468206368617261637465722025732061626f757420746f207265636f7665722e2048617320257320485020616e64202573204144a2646970667358221220c47c4252c06bb128a52571d78bb7b526d9067cd24f8587e81cca319acf02265464736f6c63430008110033446f6e6520696e697469616c697a696e6720257320776974682048502025732c20696d67202573446f6e6520696e697469616c697a696e6720426f737320257320776974682048502025732c20696d67202573",
  "linkReferences": {},
  "deployedLinkReferences": {}
}